:200000000C943400FFFFFFFFFFFFFFFFFFFFFFFF0000000000000000000000000000000018
:20002000000000000000000000000000000000000C94B202FFFFFFFFFFFFFFFFFFFFFFFF78
:20004000000000000C9431030C94C502FFFFFFFFFFFFFFFF0C946D03FFFFFFFFFFFFFFFF65
:20006000FFFFFFFF0C947F03F89411E21EBF1FEF1DBF0024E0E0F0E00192EE31E9F7E0E016
:20008000F2E00192F232E9F71FEF1093330210933402109335021093360210933702109304
:2000A000380210E810933A0210933C0210933E02109340021AE01093430214E511B91AE8DF
:2000C00017B910E81AB917EC10BB10E61093010111E0109307011AE010930A0114E012B919
:2000E00010E818B91CE81BB910E31EB914E011BB13E01093050111E01093080188981498D0
:200100008E98419830910B01377F30930B01F4D110E01093C50010E01093C40018E9109376
:20012000C10016E01093C2008824992412E01093810012E010936E00109160001861109304
:20014000600017E41093600011E010933002B5D178946AD18914E9F3F2E0E92D1081939495
:2001600093FC9924110F1E73E9EBF0E0E10FF01D09940C9434000C94F9000C9400010C9496
:2001800007010C940B010C940D010C9410010C941D010C9424010C9426010C945C010C9465
:2001A00064010C9471010C9489010C948E010C9480010C9480010C9480010C9493010C9438
:2001C000DF000C94C8010C94C3010C94C8010C94C8010C94E9000C94EB000C94ED000C9460
:2001E000EF000C94F1000C94D9010C9408020C941102ECE1F7E01591A7D1EC33E1F7A9CF77
:20020000ECE3F7E01591A0D1EA36E1F7A2CF0092300261D19ECF51D19CCF6093C60099CFA7
:2002200086D1412E25E083D11D932A95E1F75A95B3FDB3E04A94B1F78CCFF298F19A14E03C
:2002400010936F0069D185CFF29A83CFE6E5F2E028E083D1F894129110FB21B321F921BB23
:2002600022B126F922B911FB21B327F921BB28B123F928B912FB20910B0121F920930B015C
:20028000C291D29122903290C290D290F290F0990BC010913002101107C0209729F0F09A95
:2002A00012E010936F0038D16093C6007093C6006627772778944DCF3AD1212F38D1F8946C
:2002C000312E222E789445CFA8951EB31093C6005093C600E0E3F2E0119136D1E434E1F701
:2002E00038CF25D124D123D122D121D117BD1FD11093B100EFE0F2E028E02FD1ECD029CFBE
:2003000016D11093B40013D110FFF6D010FDEED020CFBFD010811093C6001BCFC4D0B9D09C
:2003200006D1108316CF03D110FB21B321F921BB22B126F922B911FB21B327F921BB28B143
:2003400023F928B912FB20910B0121F920930B01EED010FF02C0889A149A11FF02C08E9AA4
:20036000419A12FF05C010910B01186010930B01DED0889814988E98419830910B01377FFC
:2003800030930B01E6CEE7E2F2E029E0E6D0E1CECED0F12FCCD0E12F5A9A10E02AE0C2D0E7
:2003A0005A9810E02AE0BED03197B1F71093C600D0CEF89418E11093C1001091C00017FFEC
:2003C000FCCF1091C600009285000092840011E0109381002FE11091C00017FFFCCF1091B6
:2003E000C6002A95C1F71091C00017FFFCCF009281001091C600109184001093C6001091D5
:2004000085001093C60018E91093C1007894A1CEEEE0F0E011E217BF159196D0E831D1F7BA
:2004200098CEF8940C94003F10EC2CB125FD116024FD12602091030121FD146020FD186010
:2004400029B123FD106122FD106220910F02122720910B02212B20930B020052C9F410912B
:200460000B021093330220911302122B1F3F71F020913002203051F4109130021460109373
:20048000300210913302109331022CD000920B0208954DD0F12F4BD0E12F089548D012BD5A
:2004A00046D011BD0895ECE1F7E027E045903FD01415F9F72A95D1F708955FEFA0E0B3E08E
:2004C000ED016627772788279927AA24BB24EE2402D00EBA0895002700920B02A5DF00153F
:2004E000E9F7089500926F0007D0089521E009D013E21093B000089520E003D00092B00036
:200500000895E8E6F7E0449042262091020140FA25F92093020108951FEF10938500009236
:20052000840008951A95F1F72A95E1F708958914F1F3FF93EF93F2E0E92D1081EF91FF91B1
:20054000939493FC992408951F931091C00015FFFCCF1F911093C6000895E9DF11932A95B8
:20056000E1F708951FB6EABDFBBD1F932F934F9230913002326030933002B4DF4F902F91D1
:200580001F91FBB5EAB51FBE18951FB6EABDFBBDEAE6F7E0E80FF91F35915590521433059F
:2005A00030F0332D522C3015500409F456C041E037FF43E040938100306830938500509201
:2005C000840060112BC05F3F21F4F19800926F0044C07990372D377030FB41B341F941BB91
:2005E00042B146F942B931FB41B347F941BB48B143F948B932FB40910B0141F940930B0119
:200600006991A990B990E99075FE03C0E092B400EE246501FE2C5395D3FDD3E0AC0C10F4C0
:20062000889A149ABD0C10F48E9A419AEF0C28F430910B01386030930B0132E035BD6A95CC
:20064000F29B07C0009741F4F19800926F00F29804C073FC029674FC0297FBB5EAB51FBE66
:2006600018951FB6EABDFBBD8230900519F4332D522C06C0EAE6F7E0E80FF91F3591559040
:2006800041E037FF43E04093810030683093850050928400AC0C10F4889A149ABD0C10F4ED
:2006A0008E9A419AEF0C28F430910B01386030930B0132E035BD8C179D0719F008F0049705
:2006C000029631E0630F701D009719F4F09800926F00FBB5EAB51FBE18951FB6EABDFBBD38
:2006E00005BC06BC889814988E98419830910B01377F30930B01FBB5EAB51FBE18951FB6AC
:20070000EABDFBBDF2E0E82D3091C6003083839483FC8824FBB5EAB51FBE18954573746CA6
:2007200063616D205631312E3030342052616D7073202020202020202020202000004843E0
:200740000000803F00004842000048430000803F00004842000048430000803F00004842A8
:20076000000000400000803F00007B1E7BEA7C7D7CEC7D437D887DC17DF086468EE896666D
:200780009CF6A2C2A7E9AC87B0AFB473B7DFBB00BDDEC081C2F1C533C74CC940CB12CCC7B6
:2007A000CE60CFE1D14BD2A1D3E3D515D636D748D84DD945DA31DB13DBEADCB7DD7CDE38FE
:2007C000DEEDDF9AE040E0E0E179E20DE29BE324E3A9E428E4A3E51AE58EE5FDE669E6D1AF
:2007E000E736E798E7F7E853E8ADE903E958E9AAE9FAEA47EA93EADCEB24EB69EBADEBEFC3
:20080000EC30EC6FECACECE8ED22ED5BED93EDCAEDFFEE33EE66EE98EEC8EEF8EF27EF548B
:20082000EF81EFADEFD8F002F02BF053F07BF0A2F0C8F0EDF112F135F159F17BF19DF1BFE6
:20084000F1E0F200F21FF23EF25DF27BF299F2B6F2D2F2EEF30AF325F340F35AF374F38D85
:20086000F3A6F3BFF3D7F3EFF407F41EF435F44BF462F477F48DF4A2F4B7F4CCF4E0F4F40D
:20088000F508F51BF52FF542F554F567F579F58BF59DF5AEF5BFF5D1F5E1F5F2F602F613F0
:2008A000F623F632F642F651F661F670F67EF68DF69CF6AAF6B8F6C6F6D4F6E2F6EFF6FDAE
:2008C000F70AF717F724F730F73DF74AF756F762F76EF77AF786F792F79DF7A9F7B4F7BF3B
:2008E000F7CAF7D5F7E0F7EBF7F5F800F80AF815F81FF829F833F83DF847F850F85AF863F3
:20090000F86DF876F87FF889F892F89BF8A4F8ACF8B5F8BEF8C6F8CFF8D7F8E0F8E8F8F058
:20092000F8F8F900F908F910F918F920F927F92FF937F93EF946F94DF954F95BF963F96A06
:20094000F971F978F97FF986F98CF993F99AF9A1F9A7F9AEF9B4F9BBF9C1F9C7F9CEF9D4D1
:20096000F9DAF9E0F9E6F9ECF9F2F9F8F9FEFA04FA0AFA10FA16FA1BFA21FA27FA2CFA3275
:20098000FA37FA3DFA42FA47FA4DFA52FA57FA5CFA61FA67FA6CFA71FA76FA7BFA80FA85CD
:2009A000FA8AFA8EFA93FA98FA9DFAA1FAA6FAABFAAFFAB4FAB8FABDFAC1FAC6FACAFACFCD
:2009C000FAD3FAD7FADCFAE0FAE4FAE9FAEDFAF1FAF5FAF9FAFDFB01FB05FB09FB0DFB1149
:2009E000FB15FB19FB1DFB21FB25FB29FB2CFB30FB34FB38FB3BFB3FFB43FB46FB4AFB4E2A
:200A0000FB51FB55FB58FB5CFB5FFB63FB66FB69FB6DFB70FB74FB77FB7AFB7EFB81FB8476
:200A2000FB87FB8BFB8EFB91FB94FB97FB9AFB9DFBA1FBA4FBA7FBAAFBADFBB0FBB3FBB617
:200A4000FBB9FBBCFBBFFBC2FBC4FBC7FBCAFBCDFBD0FBD3FBD5FBD8FBDBFBDEFBE1FBE301
:200A6000FBE6FBE9FBEBFBEEFBF1FBF3FBF6FBF9FBFBFBFEFC00FC03FC05FC08FC0AFC0D25
:200A8000FC0FFC12FC14FC17FC19FC1CFC1EFC21FC23FC25FC28FC2AFC2CFC2FFC31FC337D
:200AA000FC36FC38FC3AFC3CFC3FFC41FC43FC45FC48FC4AFC4CFC4EFC50FC53FC55FC570F
:200AC000FC59FC5BFC5DFC5FFC61FC63FC66FC68FC6AFC6CFC6EFC70FC72FC74FC76FC78CC
:200AE000FC7AFC7CFC7EFC80FC81FC83FC85FC87FC89FC8BFC8DFC8FFC91FC92FC94FC96B5
:200B0000FC98FC9AFC9CFC9DFC9FFCA1FCA3FCA5FCA6FCA8FCAAFCACFCADFCAFFCB1FCB3BE
:200B2000FCB4FCB6FCB8FCB9FCBBFCBDFCBEFCC0FCC2FCC3FCC5FCC7FCC8FCCAFCCBFCCDE9
:200B4000FCCFFCD0FCD2FCD3FCD5FCD6FCD8FCDAFCDBFCDDFCDEFCE0FCE1FCE3FCE4FCE630
:200B6000FCE7FCE9FCEAFCECFCEDFCEFFCF0FCF2FCF3FCF4FCF6FCF7FCF9FCFAFCFCFCFD91
:200B8000FCFEFD00FD01FD02FD04FD05FD07FD08FD09FD0BFD0CFD0DFD0FFD10FD11FD13FD
:200BA000FD14FD15FD17FD18FD19FD1AFD1CFD1DFD1EFD20FD21FD22FD23FD25FD26FD278B
:200BC000FD28FD29FD2BFD2CFD2DFD2EFD30FD31FD32FD33FD34FD36FD37FD38FD39FD3A30
:200BE000FD3BFD3DFD3EFD3FFD40FD41FD42FD43FD45FD46FD47FD48FD49FD4AFD4BFD4CE6
:200C0000FD4DFD4EFD50FD51FD52FD53FD54FD55FD56FD57FD58FD59FD5AFD5BFD5CFD5DAE
:200C2000FD5EFD5FFD60FD61FD62FD64FD65FD66FD67FD68FD69FD6AFD6BFD6CFD6CFD6D83
:200C4000FD6EFD6FFD70FD71FD72FD73FD74FD75FD76FD77FD78FD79FD7AFD7BFD7CFD7D6C
:200C6000FD7EFD7FFD7FFD80FD81FD82FD83FD84FD85FD86FD87FD88FD89FD89FD8AFD8B5D
:200C8000FD8CFD8DFD8EFD8FFD90FD90FD91FD92FD93FD94FD95FD95FD96FD97FD98FD995C
:200CA000FD9AFD9AFD9BFD9CFD9DFD9EFD9FFD9FFDA0FDA1FDA2FDA3FDA3FDA4FDA5FDA668
:200CC000FDA7FDA7FDA8FDA9FDAAFDAAFDABFDACFDADFDAEFDAEFDAFFDB0FDB1FDB1FDB27E
:200CE000FDB3FDB4FDB4FDB5FDB6FDB7FDB7FDB8FDB9FDBAFDBAFDBBFDBCFDBCFDBDFDBE9D
:200D0000FDBFFDBFFDC0FDC1FDC1FDC2FDC3FDC3FDC4FDC5FDC6FDC6FDC7FDC8FDC8FDC9C6
:200D2000FDCAFDCAFDCBFDCCFDCCFDCDFDCEFDCEFDCFFDD0FDD0FDD1FDD2FDD2FDD3FDD4F8
:200D4000FDD4FDD5FDD5FDD6FDD7FDD7FDD8FDD9FDD9FDDAFDDBFDDBFDDCFDDCFDDDFDDE34
:200D6000FDDEFDDFFDDFFDE0FDE1FDE1FDE2FDE3FDE3FDE4FDE4FDE5FDE5FDE6FDE7FDE777
:200D8000FDE8FDE8FDE9FDEAFDEAFDEBFDEBFDECFDECFDEDFDEEFDEEFDEFFDEFFDF0FDF0C1
:200DA000FDF1FDF2FDF2FDF3FDF3FDF4FDF4FDF5FDF5FDF6FDF6FDF7FDF8FDF8FDF9FDF911
:200DC000FDFAFDFAFDFBFDFBFDFCFDFCFDFDFDFDFDFEFDFEFDFFFDFFFE00FE01FE01FE0265
:200DE000FE02FE03FE03FE04FE04FE05FE05FE06FE06FE07FE07FE08FE08FE09FE09FE09B4
:200E0000FE0AFE0AFE0BFE0BFE0CFE0CFE0DFE0DFE0EFE0EFE0FFE0FFE10FE10FE11FE111A
:200E2000FE12FE12FE13FE13FE13FE14FE14FE15FE15FE16FE16FE17FE17FE17FE18FE1882
:200E4000FE19FE19FE1AFE1AFE1BFE1BFE1BFE1CFE1CFE1DFE1DFE1EFE1EFE1EFE1FFE1FF1
:200E6000FE20FE20FE21FE21FE21FE22FE22FE23FE23FE24FE24FE24FE25FE25FE26FE2663
:200E8000FE26FE27FE27FE28FE28FE28FE29FE29FE2AFE2AFE2AFE2BFE2BFE2CFE2CFE2CDC
:200EA000FE2DFE2DFE2EFE2EFE2EFE2FFE2FFE2FFE30FE30FE31FE31FE31FE32FE32FE3258
:200EC000FE33FE33FE34FE34FE34FE35FE35FE35FE36FE36FE36FE37FE37FE38FE38FE38D9
:200EE000FE39FE39FE39FE3AFE3AFE3AFE3BFE3BFE3BFE3CFE3CFE3CFE3DFE3DFE3DFE3E5F
:200F0000FE3EFE3EFE3FFE3FFE40FE40FE40FE41FE41FE41FE42FE42FE42FE42FE43FE43E6
:200F2000FE43FE44FE44FE44FE45FE45FE45FE46FE46FE46FE47FE47FE47FE48FE48FE4874
:200F4000FE49FE49FE49FE49FE4AFE4AFE4AFE4BFE4BFE4BFE4CFE4CFE4CFE4DFE4DFE4D03
:200F6000FE4DFE4EFE4EFE4EFE4FFE4FFE4FFE4FFE50FE50FE50FE51FE51FE51FE51FE5298
:200F8000FE52FE52FE53FE53FE53FE53FE54FE54FE54FE55FE55FE55FE55FE56FE56FE562F
:200FA000FE56FE57FE57FE57FE58FE58FE58FE58FE59FE59FE59FE59FE5AFE5AFE5AFE5ACA
:200FC000FE5BFE5BFE5BFE5CFE5CFE5CFE5CFE5DFE5DFE5DFE5DFE5EFE5EFE5EFE5EFE5F65
:200FE000FE5FFE5FFE5FFE60FE60FE60FE60FE61FE61FE61FE61FE61FE62FE62FE62FE6207
:20100000FE63FE63FE63FE63FE64FE64FE64FE64FE65FE65FE65FE65FE65FE66FE66FE66A9
:20102000FE66FE67FE67FE67FE67FE68FE68FE68FE68FE68FE69FE69FE69FE69FE69FE6A4F
:20104000FE6AFE6AFE6AFE6BFE6BFE6BFE6BFE6BFE6CFE6CFE6CFE6CFE6CFE6DFE6DFE6DF8
:20106000FE6DFE6DFE6EFE6EFE6EFE6EFE6FFE6FFE6FFE6FFE6FFE70FE70FE70FE70FE70A3
:20108000FE70FE71FE71FE71FE71FE71FE72FE72FE72FE72FE72FE73FE73FE73FE73FE7352
:2010A000FE74FE74FE74FE74FE74FE74FE75FE75FE75FE75FE75FE76FE76FE76FE76FE7601
:2010C000FE76FE77FE77FE77FE77FE77FE78FE78FE78FE78FE78FE78FE79FE79FE79FE79B3
:2010E000FE79FE79FE7AFE7AFE7AFE7AFE7AFE7AFE7BFE7BFE7BFE7BFE7BFE7BFE7CFE7C68
:20110000FE7CFE7CFE7CFE7CFE7DFE7DFE7DFE7DFE7DFE7DFE7DFE7EFE7EFE7EFE7EFE7E1E
:20112000FE7EFE7FFE7FFE7FFE7FFE7FFE7FFE7FFE80FE80FE80FE80FE80FE80FE80FE81D7
:20114000FE81FE81FE81FE81FE81FE81FE82FE82FE82FE82FE82FE82FE82FE83FE83FE8392
:20116000FE83FE83FE83FE83FE83FE84FE84FE84FE84FE84FE84FE84FE85FE85FE85FE8550
:20118000FE85FE85FE85FE85FE86FE86FE86FE86FE86FE86FE86FE86FE87FE87FE87FE870F
:2011A000FE87FE87FE87FE87FE88FE88FE88FE88FE88FE88FE88FE88FE88FE89FE89FE89D0
:2011C000FE89FE89FE89FE89FE89FE89FE8AFE8AFE8AFE8AFE8AFE8AFE8AFE8AFE8AFE8B94
:2011E000FE8BFE8BFE8BFE8BFE8BFE8BFE8BFE8BFE8BFE8CFE8CFE8CFE8CFE8CFE8CFE8C58
:20120000FE8CFE8CFE8CFE8DFE8DFE8DFE8DFE8DFE8DFE8DFE8DFE8DFE8DFE8EFE8EFE8E1E
:20122000FE8EFE8EFE8EFE8EFE8EFE8EFE8EFE8EFE8FFE8FFE8FFE8FFE8FFE8FFE8FFE8FE6
:20124000FE8FFE8FFE8FFE8FFE90FE90FE90FE90FE90FE90FE90FE90FE90FE90FE90FE90B2
:20126000FE91FE91FE91FE91FE91FE91FE91FE91FE91FE91FE91FE91FE91FE91FE92FE927C
:20128000FE92FE92FE92FE92FE92FE92FE92FE92FE92FE92FE92FE92FE93FE93FE93FE934A
:2012A000FE93FE93FE93FE93FE93FE93FE93FE93FE93FE93FE93FE93FE94FE94FE94FE941A
:2012C000FE94FE94FE94FE94FE94FE94FE94FE94FE94FE94FE94FE94FE94FE94FE95FE95EC
:2012E000FE95FE95FE95FE95FE95FE95FE95FE95FE95FE95FE95FE95FE95FE95FE95FE95BE
:20130000FE95FE95FE95FE96FE96FE96FE96FE96FE96FE96FE96FE96FE96FE96FE96FE9690
:20132000FE96FE96FE96FE96FE96FE96FE96FE96FE96FE96FE96FE96FE97FE97FE97FE9769
:20134000FE97FE97FE97FE97FE97FE97FE97FE97FE97FE97FE97FE97FE97FE97FE97FE973D
:20136000FE97FE97FE97FE97FE97FE97FE97FE97FE97FE97FE97FE97FE97FE97FE97FE971D
:20138000FE97FE97FE98FE98FE98FE98FE98FE98FE98FE98FE98FE98FE98FE98FE98FE98EF
:2013A000FE98FE98FE98FE98FE98FE98FE98FE98FE98FE98FE98FE98FE98FE98FE98FE98CD
:2013C000FE98FE98FE98FE98FE98FE98FE98FE98FE98FE98FE98FE98FE98FE98FE98FE98AD
:2013E000FE98FE98FE98FE98FE98FE98FE98FE98FE98FE98FE98FE98FE98FE98FE98000023
:20140000FFFFFFFFFFFFFFFFFFFFFFFFFFFFFFFFFFFFFFFFFFFFFFFFFFFFFFFFFFFFFFFFEC
:20142000FFFFFFFFFFFFFFFFFFFFFFFFFFFFFFFFFFFFFFFFFFFFFFFFFFFFFFFFFFFFFFFFCC
:20144000FFFFFFFFFFFFFFFFFFFFFFFFFFFFFFFFFFFFFFFFFFFFFFFFFFFFFFFFFFFFFFFFAC
:20146000FFFFFFFFFFFFFFFFFFFFFFFFFFFFFFFFFFFFFFFFFFFFFFFFFFFFFFFFFFFFFFFF8C
:202800008D06B0938E06BEADB0931206EEA1E093680630929406209293062AA93BA94CA9C5
:202820005DA920937206309373064093740650937506388D3093EA058FA198A5A9A5BAA5EF
:2028400080936E0690936F06A0937006B0937106998D90936906ABA5A093ED0510927F06A2
:2028600010928006109281061092820610927606109277061092780610927906C0926A069D
:20288000D0926B06E0926C06F0926D062FA138A549A55AA5C701B6010E940536F10165A39C
:2028A00076A387A390A70E94C206F88DF093E9050E940D0B88E080933307C45BDF4F0FB6BD
:2028C000F894DEBF0FBECDBFDF91CF911F910F91FF90EF90DF90CF90BF90AF909F908F909E
:2028E0007F906F905F904F903F902F900895A3019201688979898A899B890E940635688BA0
:20290000798B8A8B9B8BD8CEA70196016A8D7B8D8C8D9D8D0E945D389B01AC016AA17BA1AA
:202920008CA19DA10E9405358B012D968FAF2D972C969FAF2C979B01AC016E8D7F8D88A1B3
:2029400099A10E941D3818160CF0B6CE2E8D3F8D48A159A16AA17BA18CA19DA10E940535C0
:202960002A8D3B8D4C8D5D8D0E9405366B017C010E8D1F8D88A12D968FAF2D9799A12C961E
:202980009FAF2C97A2E0AF8797CE29813D814D855E856AA17BA18CA19DA10E9405359B01E2
:2029A000AC010E9406356B017C012C893D894E895F89688979898A899B890E9406359B01C7
:2029C000AC01C701B6010E9405366B017C0109811D81FD852D96FFAF2D972E852C962FAFD3
:2029E0002C976ACE26962CAD3DAD4EAD5FAD2697B8012D968FAD2D972C969FAD2C970E94AA
:202A00001D3818160CF086CE2EE333EC4EE259E3C501B4010E9406354B015C0162CE2EA93F
:202A20003FA948AD59AD6EA57FA588A999A90E9406356EA77FA788AB99AB2AA13BA14CA1E6
:202A40005DA1C501B4010E9405359B01AC016EA57FA588A999A90E9405364B015C012AA1DD
:202A60003BA14CA15DA1C701B6010E940535A50194010E945D386EAB7FAB88AF99AF20ECF4
:202A800031EE44E65EE4C501B4010E945D380E94E4350E947E36603D27E0720781059105AF
:202AA00008F044C0A6E04CA55DA5A49FF001A59FF00D1124E251FA4F158226E0ACA5BDA52B
:202AC0002A9FF0012B9FF00D1124E251FA4F74836383BBA4B39456E0B51201C0B12C98010D
:202AE0002D964FAD2D972C965FAD2C9769817D818D859E850E94FB3587FF70C0C8012D9691
:202B0000AFAD2D972C96BFAD2C97F10185A396A3A7A3B0A7FAA1FAAF2BA12BAF3CA13CAFFE
:202B20004DA14DAF4BA54EAFBBA65AC9603ABFE07B078105910598F546E02CA53DA5429F1C
:202B4000F001439FF00D1124E251FA4F51E05583A6E04CA55DA5A49FF001A59FF00D1124C8
:202B6000E251FA4F2581022E04C096958795779567950A94D2F7A20102C0440F551F2A959E
:202B8000E2F7518340836115710551E08507910508F493CF4FEF5FEF548343839ACF603402
:202BA000AFE17A078105910560F446E02CA53DA5429FF001439FF00D1124E251FA4F52E027
:202BC000C6CF26E0ACA5BDA52A9FF0012B9FF00D1124E251FA4F33E03583BACF20E030E011
:202BE000A901B8012D968FAD2D972C969FAD2C970E941D3818160CF096C08A8D9B8DAC8DEF
:202C0000BD8D8093830690938406A0938506B09386068E8D9F8DA8A1B9A180938F069093DF
:202C20009006A0939106B093920689819D81AD85BE8580937B0690937C06A0937D06B0938A
:202C40007E068C899D89AE89BF898093870690938806A0938906B0938A065F8550937A0609
:202C600089859A85AB85BC8580938B0690938C06A0938D06B0938E068BA5809312069EA126
:202C80009093680630929406209293062AA93BA94CA95DA920937206309373064093740696
:202CA00050937506388D3093EA058FA198A5A9A5BAA580936E0690936F06A0937006B0931A
:202CC0007106998D90936906B092ED0510927F0610928006109281061092820610927606D1
:202CE000109277061092780610927906C0926A06D0926B06E0926C06F0926D062FA138A559
:202D000049A55AA5C701B6010E940536D10195966D937D938D939C9398970E94C206B88D30
:202D2000B093E905C5CDEFADF88DEF1779F08F2F8F5F823109F480E0288D21963FAD219774
:202D4000231303C021968FAF2197888F312C212CE9CE4F925F926F927F928F929F92AF92DE
:202D6000BF92CF92DF92EF92FF920F931F93CF93DF93CDB7DEB768970FB6F894DEBF0FBE23
:202D8000CDBF10913407112309F491C1812F8076B9F181E0809333078BEE94E016FF51C037
:202DA00015FF4AC00E94CD088BED94E00E94CD088AEB94E00E94CD0884EF91E00E94C20D66
:202DC00088EB94E00E94CD0886EA94E00E94CD088BE694E00E94CD089FB7F89480913407B0
:202DE0008F7E809334079FBF8091340784FFFCCF9FB7F894809134078F79809334079FBF9E
:202E000014FF2EC081E08093320768960FB6F894DEBF0FBECDBFDF91CF911F910F91FF9010
:202E2000EF90DF90CF90BF90AF909F908F907F906F905F904F9008950E94CD088DEB94E08D
:202E4000B5CF0E94CD0888EC94E00E94CD088AEB94E00E94CD0884EF91E00E94C20DC8CFCC
:202E600010FFDEC08CE0E6E3F7E0DE011D9601900D928A95E1F780913307843009F449C1DA
:202E800008F032C1813009F447C108F437C1823009F445C10091C906802F837051F17E0125
:202EA0008DE0E80EF11C95E9A92E96E0B92EFE0131966F014E01F9E18F0E911CF70161915D
:202EC0007191819191917F01F50141905190619071905F010E94AF36A30192010E940536A7
:202EE000F60161937193819391936F018E149F0429F700FF19C08DE095E00E94CD08CE01D6
:202F000001967C0100E0F70161917191819191917F010E945008023021F08BE095E00E945E
:202F2000CD080F5F033079F78091C90681FF48C084E095E00E94CD08CE0101967C0188EA9E
:202F4000C82E87E0D82E00E0F60161917191819191916F0120853185428553850E940635C8
:202F60009B01AC01F70160817181828193810E940535F70161937193819391937F01023070
:202F800071F42091C0073091C1074091C2075091C3070E94053569877A878B879C87F7018C
:202FA000349760817181828193810E945008023021F082E095E00E94CD080F5F033021F619
:202FC0008091C90682FF0EC08CEF94E00E94CD088091EB059091EA05891708F4A3C0891BA8
:202FE0000E945E088091C90683FF0EC087EF94E00E94CD089091DF028091E002891708F4A7
:2030000093C0891B0E945E0883EF94E00E94CD089FB7F894809134078E7F809334079FBF6D
:2030200013FF15C080913307803149F480E2809333070E94C2060E943A0E109242079FB72C
:20304000F89480913407877F809334079FBF11FF1AC080913307883071F480E180933307E6
:203060000E943A0E0E944A078091D20681FF5EC081E0809342079FB7F894809134078D7FF5
:20308000809334079FBF12FF12C09091EB058091EA05981709F44DC088E0809333079FB7CC
:2030A000F894809134078B7F809334079FBF80913307847309F4A9CE68960FB6F894DEBFE0
:2030C0000FBECDBFDF91CF911F910F91FF90EF90DF90CF90BF90AF909F908F907F906F90B1
:2030E0005F904F900C943A0E803169F0803271F0883009F0CFCE83E395E002C08AE395E030
:203100000E94CD08C7CE8EE295E0FACF88E295E0F7CF82E295E0F4CF8BE195E0F1CF84E1AE
:2031200095E0EECF8E5E5BCF80586BCF10924207A2CF10923307B3CF0E949F0780913307E8
:20314000803119F481E0809342079091EB058091EA05981304C080913307803131F40E94B1
:20316000A91680913207882381F30895CF9390913307923041F0C82F0E949F070E949C1845
:20318000C11103C02C98CF9108959FB7C13049F4F894809102018064809302019FBF2C9A97
:2031A000F2CFF894809102018F7BF6CF2F923F924F925F926F927F928F929F92AF92BF9285
:2031C000CF92DF92EF92FF920F931F93CF93DF93CDB7DEB7E3970FB6F894DEBF0FBECDBF09
:2031E000498F5A8F6B8F072F2BAB2091EB052CA7422F50E059A348A3E9E22E9F90011124AE
:20320000F901E95FFC4F158616861786108A15A216A217A210A6108249E956E766E97EE720
:2032200041A352A363A374A31C0145E956E05DA34CA3CE0101969D8F8C8F41E052E05EA723
:203240004DA7C901885F9C4F99A788A79E01235F3F4F3BA32AA338AB2FA75FA34EA385E9FB
:2032600096E09F8F8E8F10E03F013D96FAABE9AB2301F5E24F0E511CF10161917191819194
:2032800091911F01EE8DFF8D81909190A190B190FF8FEE8FA50194010E945D380E942A38C0
:2032A000EC8DFD8D6193719381939193FD8FEC8FEEA1FFA1C190D190E190F190FFA3EEA3CE
:2032C0006C197D098E099F099B01AC0197FF07C022273327A901261B370B480B590BE8A5EA
:2032E000F9A52193319341935193F9A7E8A7E9A9FAA9C080D180E280F380C216D306E4069B
:20330000F50610F469017A01E9A9FAA9C082D182E282F3820E94AF36A50194010E94053687
:203320004B015C01EFA5F8A981929192A192B192F8ABEFA720E030E0A9010E94FB3587FFB8
:203340000BC090E2112321F090E8113009F490E4F3018081892B8083A5019401C501B4015F
:203360000E945D38F20120813181428153810E940635F20160837183828393831F5F1330B6
:2033800009F07ACF0E94FC384B015C01F20180829182A282B382CD28CE28CF2809F4EFC17C
:2033A00020E030E0A901698D7A8D8B8D902F0E94FB3587FD83C1FBA9FF2361F0298D3A8D51
:2033C0004B8D502FC501B4010E940536698F7A8F8B8F092F20E030E040E85FE3698D7A8D74
:2033E0008B8D902F0E94FB3587FF05C0198E1A8E20E82B8F0FE3A501940160E070E080E8A3
:203400009FE30E94053668A779A78AA79BA78AA19BA10C969FA38EA3812C912C540129E265
:20342000E8A1F9A12E9FC0012F9F900D11249C01285D3C4F3F8F2E8FEAA1FBA1C190D1902A
:20344000E190F190FBA3EAA320E030E0A901C701B6010E94FB35882309F473C028A539A5BE
:203460004AA55BA5C701B6010E945D382B013C01EAA1FBA134974082518262827382AC0131
:203480009B0160E070E080E89FE30E9405366B017C01E894F7F8ECA1FDA12485358546858C
:2034A0005785C701B6010E945D381B018C8F192F298D3A8D4B8D502F0E941D3818162CF0E6
:2034C000298E3A8EFC8DFB8F012FEE8DFF8D20803180F281FC8FEE8DFF8D1381ECA1FDA10E
:2034E000208D318D428D538DC701B6010E945D386B017C019B01AC01B1018C8D912F0E949D
:20350000FB3587FD03C01601EC8E1F2DC101AC8DB12FEE8DFF8D80839183A283B383EDA571
:20352000FEA52485358546855785C301B2010E945D389B01AC01C501B4010E9405354B0144
:203540005C012DA53EA52C5F3F4F3EA72DA74CA15DA14C5F5F4F5DA34CA38EA19FA1EAA15A
:20356000FBA18E179F0709F067CF8091EA05FCA5F813ACC089E228A139A1829FF001839FDB
:20358000F00D1124E95FFC4F118A128A138A148A118E128E138E148E298D3A8D4B8D502F9E
:2035A000698D7A8D8B8D902F0E945D387B018C0189E248A159A1849FF001859FF00D11243F
:2035C000E95FFC4FC701D801858F968FA78FB0A3A18CB28CC38C848C6090190270901A0204
:2035E00090901B02D0901C029301492D5D2DB701C8010E94FB3587FF03C03701902ED12EEB
:203600009301492D5D2DB5018C2D982D0E94FB3587FD03C05301C92C8D2C89E228A139A1B9
:20362000829FF001839FF00D1124E95FFC4FC501AC2DB82D858B968BA78BB08F8CE0FE0100
:203640003D96ADE0B2E001900D928A95E1F7C701D8018093190290931A02A0931B02B093B0
:203660001C028CE0FE013196A1E0B2E001900D928A95E1F7809100028093EB058F5F823109
:2036800009F480E080930002E3960FB6F894DEBF0FBECDBFDF91CF911F910F91FF90EF90CA
:2036A000DF90CF90BF90AF909F908F907F906F905F904F903F902F900C940D0B39E9398F54
:2036C00046E74A8F56E95B8F0EE795CEA501940160E070E080E89FE30E94053520E030E0C2
:2036E00040E05FE30E945D380E94FC386B017C0189E248A159A1849FF001859FF00D1124BA
:20370000E95FFC4F2091CA063091CB064091CC065091CD0661A172A183A194A10E945D3807
:20372000A70196010E945D384B015C01A701960160E070E080E89FE30E9405359B01AC018C
:20374000C501B4010E9405366B017C0120E030E0A9010E94FB3587FF03C0C12CD12C7601F2
:2037600089E228A139A1829FF001839FF00D1124E95FFC4FC18ED28EE38EF48E0DCFE3964B
:203780000FB6F894DEBF0FBECDBFDF91CF911F910F91FF90EF90DF90CF90BF90AF909F9029
:2037A0008F907F906F905F904F903F902F9008952F923F924F925F926F927F928F929F921B
:2037C000AF92BF92CF92DF92EF92FF920F931F93CF93DF9300D01F921F92CDB7DEB71C01E3
:2037E0002A013B012B838091D20685FF4AC08090D306912CB12CA12C29823A8285E996E0A2
:203800009D838C8310E000E0E981FA81C190D190E190F190FA83E983D501C401002E04C0AA
:20382000B695A795979587950A94D2F720E030E0A90180FF3AC0C701B6010E94FB3587FD4A
:203840000DC0EC81FD8164A175A186A197A19058A70196010E94FB3587FF39C08091330773
:20386000803109F03FC09FB7F894809134078860809334079FBF0E94A91680913207882387
:20388000D1F380913307823009F446C00E94A91680913207811140C09091EA058091000204
:2038A00098132DC00E949F07F1CFC701B6010E941D3818169CF2A7019601EC81FD8164A107
:2038C00075A186A197A10E941D3818163CF28C819D8104969D838C830130110591F201E081
:2038E00010E092CF0E941C0E9FB7F894809134078066809334079FBF0E94A916C2CF2B814D
:20390000B301A201C1010E94D61880913307811103C088E0809333070F900F900F900F902D
:203920000F90DF91CF911F910F91FF90EF90DF90CF90BF90AF909F908F907F906F905F9013
:203940004F903F902F9008952F923F924F925F926F927F928F929F92AF92BF92CF92DF9231
:20396000EF92FF920F931F93CF93DF93CDB7DEB7C355D1090FB6F894DEBF0FBECDBFE0E5F6
:20398000F7E089E3DF011D928A95E9F78AE0E9E8F7E0A1E5B7E001900D928A95E1F71D8E55
:2039A000312C212CF12CE12C1AA210E01E8ECC24C394D12C9924939454E0852E8D8DE82F9B
:2039C000F0E0EE51F94FA080A11026C0112329F03E8D311102C082E08E8F25FE0FC080913B
:2039E0006C0790916D07A0916E07B0916F0780389649A849B10514F00C94252980915207C8
:203A0000813009F037C2FE8DF23009F053C220FC51C286E10C9470299FEB9A0D9A3110F07D
:203A20000C941D298F5F8D8FBE01675E7F4FCE014D960E943705882311F40C941F29498C47
:203A40005A8C6B8C7C8CC301B2010E9440390E947E36062F70E090E080E00E94AF369B0121
:203A6000AC01C301B2010E94053520E030E048EC52E40E945D380E94CA380E947E36B7E400
:203A8000AB1639F1EDE4AE1609F409C1EAEBEA0DE53108F02EC00E2E000CFF0B8827EC5AD0
:203AA000F24E8F4F0C949439921E791D791DC01ECD1EDA1EE71E791DEB1E791DF91E791DF7
:203AC000031F0D1F381F791D791D791D171F221F2D1F063209F484C040F5043168F401314B
:203AE00008F0B5C0043009F457C008F479C00A3089F084E10C9470290C3161F048F406318A
:203B0000C0F7043109F0B8C09092530705E047C00E3179F761110C942B29FE8DFF2311F419
:203B20000C94502988E10C947029003509F48BC0E0F4053309F450C088F40B3211F0013346
:203B4000C1F6AE8DA111EECF013309F098C010925607B3E0BE8F66E00C9462290C3348F6B2
:203B600006530093570707E01AC00C3599F250F40A3508F4BECF0A3509F078C010925407F5
:203B800003E00DC00F3508F0B4CF0D3509F071C09092520704E003C09092500700E0662346
:203BA00009F475C087E10C94702921E02E8F32E030935007F3CFA1E0AE8FB5E0B093500799
:203BC0000C9462296A3009F094CFE6E0E09350070C943E29F1E0FE8F27E020935007DECF11
:203BE000AE8DA1119FCF023011F140F40023A1F00130C1F001E0F2E0FE8FD1CF0330E9F080
:203C00000632C1F7643109F074CF8092510732E03E8F61E00C9462291092510701E0B2E0C1
:203C2000BE8FBDCF00935107E2E0EE8FB8CF00935107F2E0FE8F01E0B2CF0093510701E082
:203C400022E02E8FACCF85E080935107F4CF023131F0033139F01092550702E0A0CF909275
:203C60005507FBCF92E090935507F7CF9092540787CF109252078ECF1092530747CF6A3090
:203C800009F037CF90925607E3E0EE8F64CF602F0C94622960E021E02E8F0C9462296111DE
:203CA00081CF0630A8F40330F8F0043039F1053049F190925A0789E0D60102C0AA0FBB1FE2
:203CC0008A95E2F7CD0197012A2339230C946B29083008F40ECF0A30C0F00E3109F009CF9E
:203CE00032E03093580708C00230D1F30E31C1F3011102C09092580788E0DECF82E0809300
:203D00005A07D9CF10925A07D6CF093029F092E0909359078AE0D0CF10925907FBCFE82AC4
:203D2000F92A4CCE40925B0750925C0760925D0770925E0780E05601082E02C0AA0CBB1CD4
:203D40000A94E2F7950122213321232B11F00C94212921E633E002C0359527958A95E2F72C
:203D600020FF0BC020E030E0A901C301B2010E94FB3587FF02C00C9423292A283B281ECE81
:203D800040925F07509260076092610770926207BAA1B160BAA381E0CECF409263075092F8
:203DA00064076092650770926607EAA1E260EAA382E0C1CF4092670750926807609269078C
:203DC00070926A07FAA1F460FAA383E0B4CF00936B0784E0B0CFC301B2010E94773660935D
:203DE0006C0770936D0780936E0790936F0785E0A2CF4092700750927107609272077092D2
:203E0000730786E098CF4092740750927507609276077092770787E08ECF409278075092CA
:203E2000790760927A0770927B0788E084CF40927D0750927E0760927F0770928007116021
:203E40008AE079CF4092810750928207609283077092840712608BE06ECF40928507509288
:203E60008607609287077092880714608CE063CF89E061CF80918A0781111CC020FE35C0D6
:203E8000809153078130B1F423E333E34BEC51E460915B0770915C0780915D0790915E0727
:203EA0000E945D3860935B0770935C0780935D0790935E0730FC10C08091930790919407AE
:203EC000A0919507B09196078093780790937907A0937A07B0937B07809150078130C1F4BB
:203EE00026FC14C08CE10C9470298091970790919807A0919907B0919A0780935B0790936C
:203F00005C07A0935D07B0935E07D4CFE89426F880915507882349F0813009F4A8C01AAE93
:203F200082E08AAB91E09AA705C022E02AAF31E03AAB1AA680915307813069F530E5A32E82
:203F400037E0B32ED12CC12C812E912CC4010C2C02C0959587950A94E2F780FF12C023E340
:203F600033E34BEC51E4F50165A576A587A590A90E945D38D5019D966D937D938D939C93A0
:203F8000D097BFEFCB1ADB0AE4E0AE0EB11CF3E0CF16D104D9F62E8D233049F480915607E0
:203FA000813029F485E2143011F00C9470298CE0E8EAF7E0DE011D9601900D928A95E1F780
:203FC000E7FC5BC000915007023009F46CC0083009F40DC1AE8DA33009F4C8C1112311F4D0
:203FE0000C949829B0915407BEA38091C0079091C107A091C207B091C3078EA79FA7A8ABCF
:20400000B9ABB9E88B2EB7E09B2E80E5A82E87E0B82ED12CC12CE12EF12CC7010C2C02C022
:20402000959587950A94E2F780FD4FC1F40183899489A589B689F50185A796A7A7A7B0ABA3
:20404000FFEFCF1ADF0A24E0820E911C34E0A30EB11C83E0C816D10401F7053009F499C133
:20406000073009F49EC1033009F022C189C1A1E0AAAF1AAAB2E0BAA75DCF80915707873071
:2040800018F08DE10C94702990918F07891709F499CFBE01635F7F4F0E948C0D811192CF38
:2040A00087E00C947029111103C08AE10C947029C10180759927892B09F414CF6091700764
:2040C0007091710780917207909173070E9440390E947E366730A8F680916B07843129F04B
:2040E000823009F006CD27FC04CD662309F473C061506EA3CE0101965C01BC018EA10E9482
:204100008C0D882369F200916B078091C0079091C107A091C207B091C3078EA79FA7A8AB69
:20412000B9ABF12CE12CD12CC12C812E912CC4010C2C02C0959587950A94E2F780FF2FC0B1
:20414000F701E05BF84F45A456A467A470A8043109F045C0F701E757F84F23A534A545A5A4
:2041600056A563897489858996890E940535A30192010E940535F501EE0DFF1D608371835B
:2041800082839383A2E0CA120AC02EA53FA548A959A90E94053569877A878B879C87BFEF82
:2041A000CB1ADB0AE4E0EE0EF11CF3E0CF16D10409F0BDCF2FEA222200915107053009F0E2
:2041C000F7C0112309F4EFC39E8D913009F4C9C18FE10C947029309157073EA38BCFF501D9
:2041E000EE0DFF1D4082518262827382D8CF112309F45BCF4090C0075090C1076090C20740
:204200007090C30799E8A92E97E0B92E4E013DE0830E911C20E5C22E27E0D22EF12CE12C4E
:20422000812F90E09FA38EA38EA19FA10E2C02C0959587950A94E2F780FF3CC0D4012D91B5
:204240003D914D915C91F50163897489858996890E940535D6019D962D913D914D915C917C
:20426000D0970E940535F60165A776A787A790ABF2E0EF120CC0A30192010E9405356093CD
:204280008507709386078093870790938807FFEFEF1AFF0A24E0A20EB11C34E0830E911CDC
:2042A00084E0C80ED11C93E0E916F10409F0BCCF1EA282CFF50183A594A5A5A5B6A5F601E8
:2042C00085A796A7A7A7B0ABE2CF073009F4B8CED5019D964D905D906D907C90D097BEA1BF
:2042E000B11133C0F601EE0FFF1FEE0FFF1F2DE030E02C0F3D1FE20FF31FD4019B962D9161
:204300003D914D915C919E9760817181828193810E940635A30192010E940635F50165A7F2
:2043200076A787A790ABF2E0CF128ACE2EA53FA548A959A90E940635609385077093860756
:2043400080938707909388077BCEA3019201D40153966D917D918D919C9156970E940635AB
:20436000F50165A776A787A790AB6ACE053089F00730B9F0033009F09BCF111101C01E8ECA
:20438000BE016F5F7F4F86E00E948C0D811190CF87CE111101C01E8EBE016F5F7F4F87E08A
:2043A000F3CF80915107823008F482CF8EE198C7AE8DA23009F0F7C20111BCC01111D1C005
:2043C000AEED2A22ACEF3A221E8E84E2232809F087C78091520780938A0780915B079091B9
:2043E0005C07A0915D07B0915E078093970790939807A0939907B0939A07C0907807D090C6
:204400007907E0907A07F0907B07A7019601609193077091940780919507909196070E94B6
:20442000FB35882369F080919207C0929307D0929407E0929507F092960781110E94B61886
:2044400080917C0780939B0780915A0790919207981721F0809392070E94B618109159070A
:20446000809191078117A9F01093910780913307823079F00E949F070E949C18123009F0E8
:2044800097C29FB7F894809102018062809302019FBF80915007813009F48DC280915507A5
:2044A00080938D078091530780938B07EE8DE330B9F48091560780938E07813009F0CFC2B9
:2044C0008091850790918607A0918707B09188078093C0079093C107A093C207B093C30734
:2044E0008091570790918F07981759F080938F078CE0FE013D96A8EAB7E001900D928A953F
:20450000E1F78091540780938C07E0915007E250E83008F0C8C2F0E08827EE56FD4D8F4F32
:204520000C94943938258525A0258525A9255325B025B62520E030E0A90160915B07709194
:204540005C0780915D0790915E070E94FB35882309F45FCA043050F4023090F4013009F4FE
:204560002DCFBEED2B22B0EE3B222FCF0430C9F7112309F49ACD0E94C42E882391F362C0DD
:20458000112309F492CDFAA5EF2FF0E0FDABECAB3AA9232F30E03FAB2EAB81E090E07C0169
:2045A0000AA402C0EE0CFF1C0A94E2F70AA802C0880F991F0A94E2F7E82AF92A812F90E070
:2045C0008E219F21892B09F442C6CF01880F991F880F991FFC01E05BF84F8757984FDC0124
:2045E00053962D913D914D915C91569765A576A587A590A90E9405354B015C018EA99FA900
:20460000880F991F880F991FFC01E05BF84F8757984FDC0153962D913D914D915C915697AE
:2046200065A576A587A590A90E9405356EA77FA788AB99AB27FEE3C0E89427F80E94C42E6B
:20464000882311F081E24CC66091740770917507809176079091770720915307213071F462
:2046600023E333E34BEC51E40E945D38609374077093750780937607909377074090740712
:20468000509075076090760770907707A5019401C501B4010E945D386AA37BA38CA39DA34C
:2046A0002EA53FA548A959A9CA01B9010E945D3822966CAF7DAF8EAF9FAF229720E030E041
:2046C00040E850E4C301B2010E945D38A30192010E945D382AA13BA14CA15DA10E940535F4
:2046E00022962CAD3DAD4EAD5FAD22970E9405356B017C0120E030E0A9010E94FB3587FDAA
:20470000A8C5C701B6010E94FC386B017C0122962CAD3DAD4EAD5FAD22976AA17BA18CA15F
:204720009DA10E9406350E94FC389B01AC01C701B60190580E9405366B017C01033021F4CA
:20474000F7FAF094F7F8F09420E030E0A901C301B2010E94FB3587FF0FC0F7FAF094F7F8B5
:20476000F094D301C201B0588093740790937507A0937607B09377070CA91DA9000F111FBE
:20478000000F111F0C5A184FA70196016EA57FA588A999A90E945D389B01AC01C501B40129
:2047A0000E94053520E030E040E05FE30E945D38F80163877487858796870EA91FA9000FDF
:2047C000111F000F111F0C5A184FA7019601C501B4010E945D382EA53FA548A959A90E9460
:2047E000063520E030E040E05FE30E945D38D8011B966D937D938D939C931E97B2CEBAA15C
:204800000B2F10E0EB22F12283E2EF2809F468C5E1EF2E2280915307813059F550E5C52EF6
:2048200057E0D52EF12CE12CC8010E2C02C0959587950A94E2F780FF12C023E333E34BECEE
:2048400051E4D6011F966D917D918D919C9152970E945D38F6016787708B818B928BFFEF29
:20486000EF1AFF0A24E0C20ED11C33E0E316F104D9F6ECA9FDA9EE0FFF1FEE0FFF1FEC5ADE
:20488000F84FC384D484E584F684A7019601C501B4010E9405352B013C01EEA9FFA9EE0F14
:2048A000FF1FEE0FFF1FEC5AF84F83859485A585B6858AA39BA3ACA3BDA39C01AD016EA534
:2048C0007FA588A999A90E9405354B015C01A3019201C301B2010E945D382B013C01A501C8
:2048E0009401C501B4010E945D389B01AC01C301B2010E9406350E94FC384B015C01A701AD
:204900009601C701B6010E945D386B017C012AA13BA14CA15DA1CA01B9010E945D389B0177
:20492000AC01C701B6010E9406350E94FC386B017C01C0927407D0927507E0927607F09293
:204940007707AC019B01C501B4010E9405354B015C01E894B7F82AE037ED43EA5BE3C50106
:20496000B4010E941D3818160CF0FBCD20E030E040E05FE3C501B4010E941D3818160CF487
:2049800061CE2FE632E143E85AE3C701B6010E945D389B01AC01C501B4010E941D381816B9
:2049A0000CF0DFCD4FCE9E8D992309F409CDD9CD0E946D076ECD80913307823009F46ECD4C
:2049C000C0907007D0907107E0907207F090730720E030E040EA51E4C701B6010E945D3830
:2049E0000E94EA360E947E364B018B010E949C1820E030E04AE754E4C701B6010E945D3842
:204A00006B017C0182E3889DB001899D700D112490E080E00E94AD369B01AC01C701B6017D
:204A20000E9405350E94EA360E947E36CB010E94C20D0115110509F431CD0E94A91601506C
:204A4000110980913207811129CDFFEF20E732E0F15020403040E1F700C00000EACF10925F
:204A6000C0071092C1071092C2071092C30738CDBEA1ADE0BA9FC00111244CE050E0BE01D3
:204A80006F5F7F4F9E5F0E94DB0C80918F07EEA1E81309C08CE0FE013196A8EAB7E001900E
:204AA0000D928A95E1F710915107109389071530C1F0BE8DB230A9F4143008F05FC01230D7
:204AC00008F00FC1112309F4F7C0113009F4FEC08CE0EDE7F7E0ACE9B7E001900D928A9598
:204AE000E1F78091580780939007882309F4F8C30E949C181092420780919007823009F0CD
:204B000099C30E941C0E80E0EBC3FE8DFF2349F020E040E050E060E87FEB8DE797E00E94EA
:204B2000D81B20E040E050E060E87FEBCE0101960E94D81B8CE0FE013196ACE9B7E0AFCFA9
:204B40004CE050E06CE977E08EE492E00E94DB0CAACF4CE050E06CE977E08BE592E0F6CFB8
:204B60008CE0EDE7F7E0A4EBB7E099CFE4EBF7E08CE0DF011D928A95E9F795CF143009F04F
:204B8000A7CF80913307823009F4A2CF30908A0740909707509098076090990770909A07C5
:204BA0000E949C182090420782E10E949906892B51F49FB7F89480913407806480933407A9
:204BC0009FBF0E94A91680913207811181CF232DB301A2018DE797E00E94D81B81E080934F
:204BE00043079FB7F894809134078260809334079FBF0E94A91680913207811169CF809129
:204C00003307877FB1F780914307813041F49FB7F894809134078064809334079FBF0E940B
:204C2000A91680913207811153CF0E94F50D0E94B10D0E94EA0A84E4C82E87E0D82E05E964
:204C400016E09DE7E92E97E0F92ED6016D917D918D919D916D01F80181909190A190B190EB
:204C60008F010E94AF36A50194010E940536D7016D937D938D939D937D01E1EAF6E0E017B7
:204C8000F10719F7232DB301A2018DE797E00E94D81B9FB7F8948091340782608093340787
:204CA0009FBF0E949C1880913207811111CF209242070E9443090CCF20E040E050E060E828
:204CC0007FEB8DE797E00E94D81B02CF40919707509198076091990770919A0720918A07B5
:204CE000F0CF00918A078091970790919807A0919907B0919A078EA39FA3A8A7B9A780917E
:204D0000740790917507A0917607B09177078AA39BA3ACA3BDA3AAA594E0A99F7001112443
:204D2000F701E456F84FFFA7EEA79701215A384F3DAB2CABD9014D905D906D907C90208118
:204D4000318142815381C301B2010E9406356EAB7FAB88AF99AFEAA9B4E0EB9F10011124FD
:204D600091012456384F3BAB2AABC101815A984F9FAF8EAFDC018D909D90AD90BC90F9012C
:204D80002081318142815381C501B4010E94063526966CAF7DAF8EAF9FAF269777FA709411
:204DA00077F87094D501C401B0588E8F9F8FA8A3B9A3F701E358F84F2EA93FA948AD59ADB7
:204DC00060817181828193810E9405356B017C01F101E358F84F26962CAD3DAD4EAD5FAD2A
:204DE000269760817181828193810E9405354B015C01A7019601C301B2010E945D386AA789
:204E00007BA78CA79DA7A50194016E8D7F8D88A199A10E945D389B01AC016AA57BA58CA574
:204E20009DA50E9406356AA77BA78CA79DA7A5019401C301B2010E945D384B015C01A7016F
:204E400096016E8D7F8D88A199A10E945D389B01AC01C501B4010E9405352AA53BA54CA5DA
:204E60005DA50E9485356B017C0120E030E0A901123009F0D8C00E941D3887FD0AC02BED01
:204E80003FE049EC50E4C701B6010E9405356B017C018090CE069090CF06A090D006B09027
:204EA000D1062AA13BA14CA15DA1CA01B9010E940635A50194010E940535A50194010E9433
:204EC0005D380E94FC384B015C0120E030E040E05FE3C701B6010E945D382AA13BA14CA102
:204EE0005DA10E945D389F77A50194010E9405360E94EA360E947E3628967FAF6EAF28976F
:204F0000DB01AB2B09F489C090E080E00E94AD364B015C01002361F0AC019B016EA17FA1AF
:204F200088A599A50E945D386EA37FA388A799A7A5019401C701B6010E9405366AA37BA36B
:204F40008CA39DA3EAADB4E0EB9FC00111249C012456384F3BA72AA78358984FD9012D918C
:204F60003D914D915C91FC0160817181828193810E940535A50194010E94053664966CAFA8
:204F80007DAF8EAF9FAF64972AA13BA14CA15DA1CA01B9010E945D389B01AC0160E070E038
:204FA00080E090E40E9405356B017C012BEA3AEA4AE25EE36AA17BA18CA19DA10E945D38E9
:204FC0004B015C0120E030E040E850E4C701B6010E9406359B01AC01C501B4010E945D3865
:204FE0006AAF7BAF8CAF9DAF20E030E040E05FE3C701B6010E945D382C966CAF7DAF8EAF79
:205000009FAF2C9710E022242394312C2896EEADFFAD2897E215F305A1F4202F4EA15FA1AF
:2050200068A579A54ECE0E94FB3518160CF431CF2BED3FE049EC50E4C701B6010E9406352D
:2050400026CF1C3008F08AC0A30192016AAD7BAD8CAD9DAD0E945D386B017C012E8D3F8D2D
:2050600048A159A12C966CAD7DAD8EAD9FAD2C970E945D389B01AC01C701B6010E94063522
:205080007B016C01A30192012C966CAD7DAD8EAD9FAD2C970E945D384B015C012E8D3F8D3A
:2050A00048A159A16AAD7BAD8CAD9DAD0E945D389B01AC01C501B4010E9405352B013C010B
:2050C0001F5F470156018E8E9F8EA8A2B9A2A30192016EA97FA988AD99AD0E940635EEA564
:2050E000FFA560837183828393832E8D3F8D48A159A126966CAD7DAD8EAD9FAD26970E94CB
:205100000635AAA9BBA96D937D938D939C93139764962CAD3DAD4EAD5FAD6497EAA5FBA5A6
:2051200060817181828193810E940635AAA5BBA56D937D938D939C931397202F4EA15FA1B2
:2051400068A579A58CE997E00E94D81B809132078111BECCBFEF2B1A3B0A58CFB10190E0BC
:2051600080E00E94AD362AA13BA14CA15DA10E945D386B017C010E9400366E8F7F8F88A38A
:2051800099A3C701B6010E94EE384B015C01ACA9BDA9CD90DD90ED90FC90F7FAF094F7F8F1
:2051A000F094AEADBFAD8D919D910D90BC91A02D60968CAF9DAFAEAFBFAF6097A701960123
:2051C0006E8D7F8D88A199A10E945D382B013C0160962CAD3DAD4EAD5FAD6097C501B40193
:2051E0000E945D389B01AC01C301B2010E9406352B013C01A7019601C501B4010E945D3881
:205200006B017C0160962CAD3DAD4EAD5FAD60976E8D7F8D88A199A10E945D389B01AC0104
:20522000C701B6010E9405356E8F7F8F88A399A310E04DCF1092900766CC81E051C082E056
:205240004FC089E14DC084E04BC08BE149C080E247C082E245C00E3111F40C94E21D80F4BB
:205260000A3011F40C94D71D0C3111F00C94D21D6A3011F00C94791D8092500760E022C032
:20528000053311F40C94EC1D0C3511F00C94D21D6A3011F00C94791D99E090935007EECFD6
:2052A0000E3111F40C94DB1DA8F50A3011F40C94D51D0C3111F00C944A1E81E08E8F93E06D
:2052C00090935007C60102C0880F991F6A95E2F79C012E213F21232B11F40C948F1E85E152
:2052E000CD5ADF4F0FB6F894DEBF0FBECDBFDF91CF911F910F91FF90EF90DF90CF90BF90C7
:20530000AF909F908F907F906F905F904F903F902F900895053311F40C94EA1D0C3511F0D3
:205320000C944A1E31E03E8F88E080935007CACF053009F430C8073009F433C8033011F08F
:205340000C9458211CC8CF93C0E08C2F0E946D0D811109C087E00E94DB08C13011F4CF91DA
:205360000895C1E0F2CF8091E2068823B1F30E9492070E94A41C0E943B09EFCF2F923F9213
:205380004F925F926F927F928F929F92AF92BF92CF92DF92EF92FF920F931F93CF93DF9339
:2053A000CDB7DEB7AA970FB6F894DEBF0FBECDBF9091320791112AC1C82E4090D8065090E1
:2053C000D9066090DA067090DB0688E08D8784E0888BE090B906F090BA060091BB061091E8
:2053E000BC0620E030E0A901B701C8010E94FB3587FD04C0E12CF12C00E010E084E08E8723
:2054000088E0898B9090BD06A090BE06B090BF06D090C006292D3A2D4B2D5D2DB701C801CE
:205420000E941D38181624F4E92CFA2C0B2D1D2D82E08F8780E18A8B9090C106A090C206A5
:20544000B090C306D090C406292D3A2D4B2D5D2DB701C8010E941D38181624F4E92CFA2C61
:205460000B2D1D2D20E030E040EC5FEBB701C8010E945D384B015C010E94B10D24E02D8BA7
:2054800001E08C2D90E0B0E0A0E0898F9A8FAB8FBC8FA5019401505829A33AA34BA35CA3B3
:2054A000AE014D5E5F4F5C8B4B8B8091D20686FDC6C00F8B8091D306C82ED12CF12CE12C94
:2054C000CE0101961C01FC0110E060E090E080E02DA23EA2782F298D3A8D4B8D5C8D082E82
:2054E00004C056954795379527950A94D2F72FA338A749A75AA721703327442755272D8F02
:205500003E8F4F8F58A33FA130FFA2C06F5F01119AC029A13AA14BA15CA120833183428390
:205520005383A701960104C056954795379527957A95D2F720FF09C0208131814281538199
:20554000505820833183428353832D8D3E8D4F8D58A1232B242B252B41F0A0E1B0E0AC0F6D
:20556000BD1FA80FB91F2C91122B019634968330910509F0AFCF70E090E080E00E94AD3600
:205580000E94FC3810933507A30192010E945D38AB01BC0120E0CE0101960E94D6180E94E7
:2055A0003A0E0E944A0783E00E9499067C018EE00E94990623E0EE0CFF1C2A95E1F7880F9A
:2055C000991F880F991FE82A3F89332311F08EE0E826FE017096DE011D968191982F9123F3
:2055E00029F09C919E2111F08095182311964B895C894E175F0789F7109335070E943A0EE1
:205600008091340784FF29C00E94A916AA960FB6F894DEBF0FBECDBFDF91CF911F910F91CA
:20562000FF90EF90DF90CF90BF90AF909F908F907F906F905F904F903F902F90089551E07A
:2056400050275F8B37CF80829182A282B38269CF108211821282138264CF812F8C7109F016
:20566000A2CF0E94F50D0E94B10D8091DC069091DD060E94C20D51E005278D8981508D8BF1
:20568000882349F04090D4065090D5066090D6067090D7060ACF8090DE069090DF06A09016
:2056A000E006B090E106C090D306D12CF12CE12C2401350177FA709477F87094A2E3B7E02E
:2056C000BE8BAD8BE5E9F6E0F88FEF8B10E000E0498D5A8D6B8D7C8D002E04C0769567951D
:2056E000579547950A94D2F7AD89BE8940FF53C014961D921D921D921C921797A70196015A
:20570000002E04C056954795379527950A94D2F720FF3BC0D1018D929D92AD92BC92139770
:205720000F5F1F4FB4E02B0E311CED89FE893496FE8BED8B2F89388D2C5F3F4F388F2F8B94
:205740000330110529F60E94EA0A4091D8065091D9066091DA067091DB0620E08DA19EA1BC
:205760000E94D61888E0809333079FB7F894809134078260809334079FBF0E94A9160E9425
:205780009C1884E08093330741CFF1014082518262827382C5CF14966D917D918D919C919F
:2057A00017970E94AF36EF89F88D20813181428153810E940536D1016D937D938D939C93BF
:2057C0001397AECF1F920F920FB60F9211240F900FBE0F901F9018951F920F920FB60F9296
:2057E00011240BB60F922F933F934F935F936F937F938F939F93AF93BF93EF93FF93809189
:20580000E2028C710E941B0715BCFF91EF91BF91AF919F918F917F916F915F914F913F9172
:205820002F910F900BBE0F900FBE0F901F9018951F920F920FB60F9211240BB60F920F93E8
:205840001F932F933F934F935F936F937F938F939F93AF93BF93EF93FF938091E302811196
:20586000E9C18091F3020E9401078091F2020E941B078091F10286BD82E085BD81E08093A6
:20588000E30278948091050390910603892B09F0A1C08091EC0590911206981709F4C0C15E
:2058A000E091EC052E2F30E086E0E89FF0011124E251FA4FF0930603E0930503838194816A
:2058C0009093890080938800808191819093010380930003E281809102038E1761F1E0934E
:2058E000020381E1E89FF0011124ED5EF94FF0930403E093030385859685A785B089B69529
:20590000A795979587958093E4029093E502A093E602B093E7028093E8029093E902A0937B
:20592000EA02B093EB028093EC029093ED02A093EE02B093EF02E0910303F09104038081E1
:205940009091E10289278093F30286E0829FD001839FB00D1124A251BA4F15962C918181B9
:205960009281A381B481022E04C0B695A795979587950A94D2F78093F4029093F502A0933B
:20598000F602B093F70285819681A781B085022E04C0B695A795979587950A94D2F780931C
:2059A000F8029093F902A093FA02B093FB0281859285A385B48504C0B695A795979587954F
:2059C0002A95D2F78093FC029093FD02A093FE02B093FF02809143078130A9F482E10E94E7
:2059E0009906892B81F4109243078CE0E6E3F7E0A4E4B7E001900D928A95E1F78091340755
:205A00008860809334071092F2028091E4029091E502A091E602B091E7024091F4025091D0
:205A2000F5026091F6027091F702840F951FA61FB71F8093E4029093E502A093E602B09349
:205A4000E702E0910303F09104034585568567857089481759076A077B0728F524E020934E
:205A6000F202841B950BA60BB70B8093E4029093E502A093E602B093E702809136079091C7
:205A80003707A0913807B0913907208125FFE7C00197A109B1098093360790933707A0938B
:205AA0003807B09339078091E8029091E902A091EA02B091EB020091F8021091F9022091FA
:205AC000FA023091FB02800F911FA21FB31F8093E8029093E902A093EA02B093EB02481781
:205AE00059076A077B0738F52091F20228602093F202841B950BA60BB70B8093E802909380
:205B0000E902A093EA02B093EB0280913A0790913B07A0913C07B0913D07208126FFA3C074
:205B20000197A109B10980933A0790933B07A0933C07B0933D078091EC029091ED02A09173
:205B4000EE02B091EF020091FC021091FD022091FE023091FF02800F911FA21FB31F80939C
:205B6000EC029093ED02A093EE02B093EF02481759076A077B0738F52091F2022061209316
:205B8000F202841B950BA60BB70B8093EC029093ED02A093EE02B093EF0280913E0790917E
:205BA0003F07A0914007B0914107208127FF5FC00197A109B10980933E0790933F07A093C8
:205BC0004007B093410780913307843039F4809135079091F20289238093F202809100039E
:205BE0009091010301979093010380930003892B69F410920603109205038091EC058F5F55
:205C00008093EC05863011F41092EC058091F2029091E20289278093F2021092E3020AC020
:205C20000E94CC0D9FB7F894809134078460809334079FBFFF91EF91BF91AF919F918F913B
:205C40007F916F915F914F913F912F911F910F910F900BBE0F900FBE0F901F90189501961E
:205C6000A11DB11D18CF0196A11DB11D5CCF0196A11DB11DA0CF1F920F920FB60F921124E4
:205C80000BB60F922F933F934F935F936F937F938F939F93AF93BF93EF93FF938091C60053
:205CA0008132D9F1A8F4883109F43DC0E091E00291E09E0F903809F490E02091DF022917A0
:205CC000C9F0F0E0E15AFD4F80839093E00212C08F3341F08E3751F79FB7F89480913407AC
:205CE000826005C09FB7F894809134078160809334079FBFFF91EF91BF91AF919F918F9152
:205D00007F916F915F914F913F912F910F900BBE0F900FBE0F901F9018959FB7F894809151
:205D200034078860E4CF0E941C0EE4CF1F920F920FB60F9211240BB60F928F939F93EF93E9
:205D4000FF9380915E02E82FF0E0E25EFD4F90819093C6008F5F803409F480E080935E0261
:205D600090911D02981305C08091C1008F7D8093C100FF91EF919F918F910F900BBE0F905A
:205D80000FBE0F901F901895CF9320917D0730917E0740917F075091800760919C0770910A
:205DA0009D0780919E0790919F070E94FB35811128C02091810730918207409183075091B7
:205DC00084076091A0077091A1078091A2079091A3070E94FB35811114C0C1E0209185075C
:205DE0003091860740918707509188076091A4077091A5078091A6079091A7070E94FB35DE
:205E00008111C0E08C2FCF910895CF93DF93CDB7DEB761970FB6F894DEBF0FBECDBF80915B
:205E2000C00082608093C0001092C50080E18093C4008091C10080618093C1008091C100F5
:205E400088608093C1008091C10080688093C10090E080E00E94230D893009F49AC187E0DE
:205E60000E94DB088AE08093C5068FEF8093C8061092C6061092C70683E08093C9064AE0AA
:205E800057ED63EA7CE34093CA065093CB066093CC067093CD064FE652E163E07BE3409344
:205EA000CE065093CF066093D0067093D1068093D30680E090E0A8E4B2E48093D4069093C5
:205EC000D506A093D606B093D70680E090ECAEE1B4E48093D8069093D906A093DA06B0936C
:205EE000DB068AEF90E09093DD068093DC061092DE061092DF061092E0061092E10682E35A
:205F00008093D20680E090E0A0E2B5E48093950690939606A0939706B093980680939906DB
:205F200090939A06A0939B06B0939C0680E090E0A6E9B5E480939D0690939E06A0939F0698
:205F4000B093A00680E090E0A6E9B3E48093A1069093A206A093A306B093A4068093A50656
:205F60009093A606A093A706B093A80680E090E0A6E1B3E48093A9069093AA06A093AB061A
:205F8000B093AC0680E090E0A1E6B7E48093AD069093AE06A093AF06B093B0068093B106D2
:205FA0009093B206A093B306B093B4068093B5069093B606A093B706B093B80680E090E0AF
:205FC000A8E2B3EC8093B9069093BA06A093BB06B093BC0680E090E0AAECB2EC8093BD0610
:205FE0009093BE06A093BF06B093C00680E090E0A8E4B2EC8093C1069093C206A093C306FE
:20600000B093C4060E94160D60E080E093E00E94BB0C60E081E593E00E94BB0C60E08EEAF8
:2060200093E00E94BB0C0E94810910E0BE016F5F7F4F812F0E948C0D811103C087E00E94C4
:20604000DB081F5F183091F7809A869A80910A01886080930A01819A879A80910A01826079
:2060600080930A01579A829A80910701816080930701809181008F7E80938100809181001B
:20608000886080938100809180008C7F80938000809180008F708093800080916E00887FAC
:2060A00080936E0014BC15BC80916E00816080936E00E2E3F7E08EE1DF011D928A95E9F744
:2060C00081E08093320778949091D20694FD80933307A9E8AA2EA7E0BA2ECC24C394B2E07F
:2060E000EB2E13E0312E8091E0028093DF028BE3F50111928A95E9F768EA77E080E00E949D
:206100008C0D811103C087E00E94DB08249A809101018064809301012C9880910101806222
:20612000809301010E946D070E94780C82E10E94E40582E10E9473060E94B10D0E94F50D9E
:206140000E94EA0A0E94840C10923207109234078091D20681FF29C0C092420788E592E0F3
:206160000E94CD0880913307813011F588EB94E00E94CD0882E994E00E94CD088BE694E00D
:206180000E94CD0810E0D12C84E0982E91E5892E2DC44DE450E061E070E085E996E00E94DB
:2061A0002B0D892B09F041CF5ACE10924207D6CF109233070E94A329E5CF843209F0C1C301
:2061C000C98A8091E306833409F411C194F4882361F1843279F1909133079230B8F58834C1
:2061E00009F4C6C10CF02BC1833209F445C1F12C37C18734A9F1883571F7E98A8091E4067E
:2062000081111DC080913307813041F588EB94E00E94CD0880E894E00E94CD088BE694E047
:206220000E94CD081092330719C087E293E00E94CD0814C0E98A8091E406882319F043E0C6
:20624000F42E06C080913307807331F0F8E0FF2E8F2D0E943B09C9C30E948109F12CF8CFB4
:20626000E98A8091E4068111EACF80918907823009F485C008F073C0882309F478C0813014
:2062800009F47AC08FE093E00E94CD0880918F078A5C0E945E0880918D07813009F47AC04C
:2062A00008F473C0823009F478C080918B07811177C08BEF92E00E94CD0880918C078111C3
:2062C00072C081EF92E00E94CD0880918A07813009F06CC087EE92E00E94CD0880919007B5
:2062E000813009F46BC008F464C0823009F469C080919207813009F467C008F46DC0823073
:2063000009F467C080919107882309F468C0823009F46AC08FEB92E00E94CD0880919B07F1
:206320000E945E088CEB92E00E94CD0860919707709198078091990790919A072091D206CA
:2063400040E020FF07C02BE832E441E25DE30E945D3841E00E94AC0788EB92E068CF83302F
:2063600089F0853009F08ECF82E193E002C083E293E00E94CD0886CF8FE193E0FACF8BE145
:2063800093E0F7CF87E193E0F4CF8AE093E00E94CD088BCF85E093E0FACF80E093E0F7CF3E
:2063A00086EF92E088CF8CEE92E08DCF82EE92E093CF8EED92E00E94CD089ACF8AED92E05D
:2063C000FACF86ED92E0F7CF82ED92E00E94CD0899CF8EEC92E0FACF8AEC92E0F7CF86ECB4
:2063E00092E00E94CD0896CF82EC92E0FACFE98A8091E406811123CFF0903307F2E0FF1217
:206400000DC00E941C0E88EB94E00E94CD088FE694E00E94CD088BE694E009CFF11016CF82
:20642000E092330788EB94E00E94CD0888E794E00E94CD088BE694E00E94CD0809CF893407
:2064400009F4B9C08E3409F0D2CEE98A8091E40610E0882309F4EFC0FF24F3949111F6CEA6
:20646000BE01635F7F4FCE0141960E9437058111FFC0E2E0FE2EECCEE98A8091E406811150
:20648000DECE512CBE016F5F7F4F852D0E948C0DF82E811104C087E00E94DB08D9CE85EB0C
:2064A00092E00E94CD0886E0581649F0A7E05A1609F45BC086E3850D0E945E0804C082EBA3
:2064C00092E00E94CD088DEA92E00E94CD088E010F5F1F4FF12CF8016191719181919191CA
:2064E0008F010E945008F2E08BEA92E0FF1202C087EA92E00E94CD08F39483E0F812EBCF7E
:206500005394A8E05A12BECF81EA92E00E94CD0804EB17E0F12CF80161917191819191919B
:206520008F010E945008F2E08FE992E0FF1202C08BE992E00E94CD08F39483E0F812EBCF37
:2065400085E992E00E94CD086091C0077091C1078091C2079091C3070E94500881E992E0C8
:206560000E94CD080E94430979CE8FEA92E0A9CF8091D20665E0F62E84FF6ACE90923307A3
:2065800081E00E94BE2982E00E94BE290E94A91680913207811108C00E94840C1092330713
:2065A0000E94CC0D0E94780CF0903207F11056CE0E94A3294DCEE98A8091E40681111DC0F6
:2065C00040E550E06EEA73E082EE96E00E942B0D892B51F41092E20640E550E062EE76E07D
:2065E0008EEA93E00E94DB0C81E892E00E94CD080E9492078DE792E01ACE398A8D3309F050
:206600001ECE83E0282F30E0F901EE51F94F90812152394FD9019C938F5F90819111F2CFCC
:20662000898B40E550E062EE76E08EEA93E00E94DB0C14CE11E0812F0E946D0D811106C0E0
:2066400087E00E94DB081130A9F708CE8AE792E00E94CD08812F0E945E0888E792E00E9402
:20666000CD080E94920785E792E00E94CD08EBCFE98981E08E0F898BF0E0EE51F94F90810F
:206680009D3309F0DCCDFF2059F1482F50E0282F30E0D901AE51B94F9C91241B350BF9018A
:2066A000EE51F94F90838F5F9C919111F0CF898B0E94A41CF82E8111CBCD6D857E858F85F5
:2066C00098890E9440390E947E36689DC001112440E550E062EE76E09D5F0E94DB0CB8CD28
:2066E000BE016F5F7F4FCE0141960E943705882309F4BFCEE989F0E0EE51F94F808181112A
:206700009ECD49805A806B807C806D857E858F8598890E947E36062F20E030E0A901C30151
:20672000B2010E94FB3587FD03C1043608F442C0045680E00330A8F510E0000F111F000F8C
:20674000111F823089F0F801833021F1813049F0EB56F94F40825182628273820E94160D7A
:2067600077CDEF55F94FF6CF0355194F20E030E040E752E4C301B2010E945D3820E030E099
:2067800040E752E40E945D38F8016083718382839383E4CFE754F94F77FA709477F870945C
:2067A000D9CF8F5F0A3008F44ACD843009F447CD0A50C0CFC301B2010E9440390E947E3660
:2067C0000C3108F03CCDE02FF0E08827E551FC4C8F4F0C94943907340D34103415341834CF
:2067E00022342A341F311F311F31323434343D3446344E341F311F311F311F311F315634A0
:2068000060346C3474347734803489348F34633008F491C06093C506A1CF6093C8069ECF81
:206820006093C6060E94E40699CF6093C706FACF8091D206662321F084608093D2068ECF6D
:206840008B7FFBCF8091D206662311F08064F5CF8F7BF3CF8091D206662311F08068EDCF66
:206860008F77EBCF6093C9064092CA065092CB066092CC067092CD0671CF4092CE065092E0
:20688000CF066092D0067092D10668CF8091D206662311F08160D1CF8E7FCFCF8091D206C3
:2068A000662311F08260C9CF8D7FC7CF8091D206662321F084FF42C08062BFCF8F7DBDCF22
:2068C0008091D206662331F088608093D2060E94780C44CF877FF9CF8091D206662311F0D8
:2068E0008061ABCF8F7CA9CF6093D30637CF4092D4065092D5066092D6067092D7062ECFD5
:206900004092D8065092D9066092DA067092DB0625CF70E07093DD066093DC061FCF409292
:20692000DE065092DF066092E0067092E10616CF54E0F52E8DCC36E0F32E8ACC2AE0F22E9F
:2069400087CC80913307813021F489E00E94DB084CC00E94A41C7DCCDD2039F0DD24D394A0
:20696000893209F043C0D12C41C0813208F43EC08F32E1F1883291F01F3410F08BE0E6CF74
:20698000E12FF0E0EE51F94F1F5F9FE9980F9A3108F4805280832AC010E0E5CFDD24D39451
:2069A00025C0E92FF0E0E15AFD4F80819F5F903809F490E09093DF028F3FF1F08A3011F0E1
:2069C0008D3051F6E12FF0E0EE51F94F10820E94A916D0903207D110DFCF8091E2068111A6
:2069E000ECCB8CE199E00E94CD0810E09091DF028091E0029813D5CF0E949F070E94A916A6
:206A000080913207882391F36ECB5058BB27AA270E941D350C94B7370E947E3738F00E94C6
:206A2000853720F039F49F3F19F426F40C9454370EF4E095E7FB0C942537E92F0E94DC370B
:206A400058F3BA17620773078407950720F079F4A6F50C9416380EF4E0950B2EBA2FA02DA4
:206A60000B01B90190010C01CA01A0011124FF27591B99F0593F50F4503E68F11A16F040CB
:206A8000A22F232F342F4427585FF3CF469537952795A795F0405395C9F77EF41F16BA0BA9
:206AA000620B730B840BBAF09150A1F0FF0FBB1F661F771F881FC2F70EC0BA0F621F731F33
:206AC000841F48F4879577956795B795F7959E3F08F0B0CF9395880F08F09927EE0F9795E7
:206AE000879508950E947E3760F080E891E009F49EEF0E94853728F040E851E071F45EEF52
:206B00000CC00C9454370C941638E92FE0780E94DC3740F3092E052AB1F326173707480764
:206B2000590738F00E2E07F8E02569F0E025E0640AC0EF6307F8009407FADB01B9019D0107
:206B4000DC01CA01AD01EF930E941C360E94B7370E94B5355F91552339F02BED3FE049E458
:206B600050FD49EC0C9406350895DF93DD27B92FBF7740E85FE31616170648075B0718F417
:206B8000D92F0E9422389F938F937F936F930E943C39E4EEF0E00E9457370E94B7372F9150
:206BA0003F914F915F910E947038DD2351F09058A2EA2AED3FE049EC5FE3D0785D270E941B
:206BC0001D35DF910C94B7370E94FE3790F09F3748F4911116F40C94173860E070E080E869
:206BE0009FE3089526F01B16611D711D811D0C942B370C9446370E94013708F481E0089592
:206C00000E948E37E3950C94C8370E9419360C94B7370E94853758F00E947E3740F029F42D
:206C20005F3F29F00C94253751110C9417380C9454370E94DC3768F39923B1F3552391F3B9
:206C4000951B550BBB27AA2762177307840738F09F5F5F4F220F331F441FAA1FA9F335D0CF
:206C60000E2E3AF0E0E832D091505040E695001CCAF72BD0FE2F29D0660F771F881FBB1F6E
:206C8000261737074807AB07B0E809F0BB0B802DBF01FF2793585F4F3AF09E3F510578F030
:206CA0000C9425370C9417385F3FE4F3983ED4F3869577956795B795F7959F5FC9F7880F87
:206CC000911D9695879597F90895E1E0660F771F881FBB1F621773078407BA0720F0621B79
:206CE000730B840BBA0BEE1F88F7E09508950E947E366894B1110C94173808950E94E437C7
:206D000088F09F5798F0B92F9927B751B0F0E1F0660F771F881F991F1AF0BA95C9F714C005
:206D2000B13091F00E941638B1E008950C941638672F782F8827B85F39F0B93FCCF38695E7
:206D400077956795B395D9F73EF490958095709561957F4F8F4F9F4F0895E89409C097FB9E
:206D60003EF490958095709561957F4F8F4F9F4F9923A9F0F92F96E9BB279395F695879565
:206D800077956795B795F111F8CFFAF4BB0F11F460FF1BC06F5F7F4F8F4F9F4F16C08823F6
:206DA00011F096E911C0772321F09EE8872F762F05C0662371F096E8862F70E060E02AF06A
:206DC0009A95660F771F881FDAF7880F9695879597F908950E94FE3790F09F3748F49111EB
:206DE00016F00C94173860E070E080E89FEB089526F41B16611D711D811D0C942B370C94E8
:206E00004637990F0008550FAA0BE0E8FEEF16161706E807F907C0F012161306E407F50767
:206E200098F0621B730B840B950B39F40A2661F0232B242B252B21F408950A2609F4A14045
:206E4000A6958FEF811D811D089597F99F6780E870E060E00895882371F4772321F09850D2
:206E6000872B762F07C0662311F499270DC09051862B70E060E02AF09A95660F771F881FBC
:206E8000DAF7880F9695879597F908959F3F31F0915020F4879577956795B795880F911D6D
:206EA0009695879597F908959FEF80EC0895DF93CF931F930F93FF92EF92DF927B018C0113
:206EC000689406C0DA2EEF010E947038FE01E894A5912591359145915591A6F3EF010E949A
:206EE0001D35FE019701A801DA9469F7DF90EF90FF900F911F91CF91DF91089500240A9436
:206F00001616170618060906089500240A94121613061406050608950C9454370E94E437B1
:206F2000D8F3E894E0E0BB279F57F0F02AED3FE049EC06C0EE0FBB0F661F771F881F28F0C0
:206F4000B23A62077307840728F0B25A620B730B840BE3959A9572F7803830F49A95BB0F54
:206F6000661F771F881FD2F790480C944837092E0394000C11F4882352F0BB0F40F4BF2BDB
:206F800011F460FF04C06F5F7F4F8F4F9F4F0895EF93E0FF07C0A2EA2AED3FE049EC5FEB5B
:206FA0000E941D350E94B7370F90039401FC9058E1E1F1E00C94523957FD9058440F551F71
:206FC00059F05F3F71F04795880F97FB991F61F09F3F79F087950895121613061406551F8C
:206FE000F2CF4695F1DF08C0161617061806991FF1CF869571056105089408950E94E43791
:20700000A0F0BEE7B91788F4BB279F3860F41616B11D672F782F8827985FF7CF8695779518
:207020006795B11D93959639C8F30895E894BB2766277727CB0197F908950E94013708F4DF
:207040008FEF08959B01AC0160E070E080E89FE30C9405360E94E43758F19E5760F1985142
:20706000A0F0E9F0983020F5092E9927660F771F881F991F0A94D1F712C0062E672F782FC0
:207080008827985F11F4000C07C0993FB4F38695779567959395D9F7611D711D811D3EF4FC
:2070A00090958095709561957F4F8F4F9F4F089568940C9417380C9416380E9470380C94A1
:2070C000B7370E947E3738F00E94853720F0952311F00C9425370C94543711240C941738D1
:2070E0000E94DC3770F3959FC1F3950F50E0551F629FF001729FBB27F00DB11D639FAA27C5
:20710000F00DB11DAA1F649F6627B00DA11D661F829F2227B00DA11D621F739FB00DA11D58
:20712000621F839FA00D611D221F749F3327A00D611D231F849F600D211D822F762F6A2FA9
:2071400011249F5750409AF0F1F088234AF0EE0FFF1FBB1F661F771F881F91505040A9F75C
:207160009E3F510580F00C9425370C9417385F3FE4F3983ED4F3869577956795B795F79574
:20718000E7959F5FC1F7FE2B880F911D9695879597F908950E94E437E8F09E37E8F09639CA
:2071A000B8F49E3848F4672F782F8827985FF9CF86957795679593959539D0F3B62FB17084
:2071C0006B0F711D811D20F487957795679593950C942B370C9446370C9417389F930E94C7
:2071E0008E370F9007FCEE5F0C94C83719F416F40C9454370C9446370E94E437B8F39923B9
:20720000C9F3B6F39F57550B87FF0E944B390024A0E640EA900180585695979528F4805CBB
:20722000660F771F881F20F026173707480730F4621B730B840B202931294A2BA695179416
:207240000794202531254A2758F7660F771F881F20F026173707480730F4620B730B840B0E
:20726000200D311D411DA09581F7B901842F9158880F9695879508959B01AC010C945D3839
:207280000E94FE3730F09F3710F40C9417380C942B370C94463791505040660F771F881FEC
:2072A000D2F708959F938F937F936F93FF93EF939B01AC010E945D38EF91FF910E9457372C
:2072C0002F913F914F915F910C945D38991B79E004C0991F961708F0961B881F7A95C9F7C4
:2072E00080950895A1E21A2EAA1BBB1BFD010DC0AA1FBB1FEE1FFF1FA217B307E407F50783
:2073000020F0A21BB30BE40BF50B661F771F881F991F1A9469F760957095809590959B019B
:20732000AC01BD01CF010895EE0FFF1F881F8BBF0790F691E02D19940E94A739A59F900D2E
:20734000B49F900DA49F800D911D11240895A29FB001B39FC001A39F700D811D1124911DA8
:20736000B29F700D811D1124911D0895F894FFCFFFFFFFFFFFFFFFFFFFFFFFFFFFFFFFFFD7
:20738000FFFFFFFFFFFFFFFFFFFFFFFFFFFFFFFFFFFFFFFFFFFFFFFFFFFFFFFFFFFFFFFF0D
:2073A000FFFFFFFFFFFFFFFFFFFFFFFFFFFFFFFFFFFFFFFFFFFFFFFFFFFFFFFFFFFFFFFFED
:2073C000FFFFFFFFFFFFFFFFFFFFFFFFFFFFFFFFFFFFFFFFFFFFFFFFFFFFFFFFFFFFFFFFCD
:2073E000FFFFFFFFFFFFFFFFFFFFFFFFFFFFFFFFFFFFFFFFFFFFFFFFFFFFFFFFFFFFFFFFAD
:20740000882352F0BB0F40F4BF2B11F460FF04C06F5F7F4F8F4F9F4F0895EF93E0FF07C042
:20742000A2EA2AED3FE049EC5FEB0E9462370E94FC390F90039401FC9058E1E1F1E00C94AB
:20744000973B57FD9058440F551F59F05F3F71F04795880F97FB991F61F09F3F79F087959E
:207460000895121613061406551FF2CF4695F1DF08C0161617061806991FF1CF86957105FC
:207480006105089408950E94293AA0F0BEE7B91788F4BB279F3860F41616B11D672F782F83
:2074A0008827985FF7CF869577956795B11D93959639C8F30895E894BB2766277727CB01CB
:2074C00097F908950E94463908F48FEF08959B01AC0160E070E080E89FE30C944A380E94C0
:2074E000293A58F19E5760F19851A0F0E9F0983020F5092E9927660F771F881F991F0A946C
:20750000D1F712C0062E672F782F8827985F11F4000C07C0993FB4F3869577956795939518
:20752000D9F7611D711D811D3EF490958095709561957F4F8F4F9F4F089568940C945C3A01
:207540000C945B3A0E94B53A0C94FC390E94C33938F00E94CA3920F0952311F00C946A3919
:207560000C94993911240C945C3A0E94213A70F3959FC1F3950F50E0551F629FF001729F9B
:20758000BB27F00DB11D639FAA27F00DB11DAA1F649F6627B00DA11D661F829F2227B00D20
:2075A000A11D621F739FB00DA11D621F839FA00D611D221F749F3327A00D611D231F849FF3
:2075C000600D211D822F762F6A2F11249F5750409AF0F1F088234AF0EE0FFF1FBB1F661F8C
:2075E000771F881F91505040A9F79E3F510580F00C946A390C945C3A5F3FE4F3983ED4F30F
:20760000869577956795B795F795E7959F5FC1F7FE2B880F911D9695879597F908950E94B9
:20762000293AE8F09E37E8F09639B8F49E3848F4672F782F8827985FF9CF86957795679507
:2076400093959539D0F3B62FB1706B0F711D811D20F487957795679593950C9470390C947C
:207660008B390C945C3A9F930E94D3390F9007FCEE5F0C940D3A19F416F40C9499390C9431
:207680008B390E94293AB8F39923C9F3B6F39F57550B87FF0E94903B0024A0E640EA9001A7
:2076A00080585695979528F4805C660F771F881F20F026173707480730F4621B730B840BA9
:2076C000202931294A2BA69517940794202531254A2758F7660F771F881F20F02617370779
:2076E000480730F4620B730B840B200D311D411DA09581F7B901842F9158880F96958795E3
:2077000008959B01AC010C94A23A0E94433A30F09F3710F40C945C3A0C9470390C948B390B
:2077200091505040660F771F881FD2F708959F938F937F936F93FF93EF939B01AC010E9459
:20774000A23AEF91FF910E949C392F913F914F915F910C94A23A991B79E004C0991F9617B4
:2077600008F0961B881F7A95C9F780950895AA1BBB1B51E107C0AA1FBB1FA617B70710F086
:20778000A61BB70B881F991F5A95A9F780959095BC01CD010895A1E21A2EAA1BBB1BFD01B2
:2077A0000DC0AA1FBB1FEE1FFF1FA217B307E407F50720F0A21BB30BE40BF50B661F771F3F
:2077C000881F991F1A9469F760957095809590959B01AC01BD01CF010895EE0FFF1F881FD2
:2077E0008BBF0790F691E02D19940E94003CA59F900DB49F900DA49F800D911D1124089568
:20780000A29FB001B39FC001A39F700D811D1124911DB29F700D811D1124911D0895FB013B
:20782000DC0104C08D910190801921F441505040C8F7881B990B0895F894FFCFFFFFFFFF30
:20784000FFFFFFFFFFFFFFFFFFFFFFFFFFFFFFFFFFFFFFFFFFFFFFFFFFFFFFFFFFFFFFFF48
:20786000FFFFFFFFFFFFFFFFFFFFFFFFFFFFFFFFFFFFFFFFFFFFFFFFFFFFFFFFFFFFFFFF28
:20788000FFFFFFFFFFFFFFFFFFFFFFFFFFFFFFFFFFFFFFFFFFFFFFFFFFFFFFFFFFFFFFFF08
:2078A000FFFFFFFFFFFFFFFFFFFFFFFFFFFFFFFFFFFFFFFFFFFFFFFFFFFFFFFFFFFFFFFFE8
:2078C000FFFFFFFFFFFFFFFFFFFFFFFFFFFFFFFFFFFFFFFFFFFFFFFFFFFFFFFFFFFFFFFFC8
:2078E000FFFFFFFFFFFFFFFFFFFFFFFFFFFFFFFFFFFFFFFFFFFFFFFFFFFFFFFFFFFFFFFFA8
:207900008A2B8B2B09F0D5C1809117148823D1F0109217148091151490911614892B91F03E
:207920001092A003109216141092151490912F1180913011981731F0809130118F5F8F70A9
:20794000809330118091151490911614892B09F4B0C10091DC031091DD032091DE033091E8
:20796000DF038091D8039091D903A091DA03B091DB034091CE0350E060E070E0801B910B76
:20798000A20BB30B481759076A077B0710F4DB01CA01482F800F911FA21FB31F8093DC03E4
:2079A0009093DD03A093DE03B093DF03809184009091850080968090B5039090B603A09069
:2079C000B703B090B8030091A5031091A6032091A7033091A803080D191D2A1D3B1D00932B
:2079E000B5031093B6032093B7033093B80337FD1CC0889A009124141091251420912614C8
:207A00003091271480909803082C000C9908AA08BB08080D191D2A1D3B1D00932414109311
:207A2000251420932614309327148090B9039090BA03A090BB03B090BC030091A9031091AE
:207A4000AA032091AB033091AC03080D191D2A1D3B1D0093B9031093BA032093BB033093DD
:207A6000BC0337FD1CC08E9A009128141091291420912A1430912B1480909903082C000C89
:207A80009908AA08BB08080D191D2A1D3B1D009328141093291420932A1430932B14809034
:207AA000BD039090BE03A090BF03B090C0030091AD031091AE032091AF033091B003080DB1
:207AC000191D2A1D3B1D0093BD031093BE032093BF033093C00337FD21C020910B01209598
:207AE00028702093090100912C1410912D1420912E1430912F1480909A03082C000C9908F9
:207B0000AA08BB08080D191D2A1D3B1D00932C1410932D1420932E1430932F148090C10380
:207B20009090C203A090C303B090C4030091B1031091B2032091B3033091B403080D191D9E
:207B40002A1D3B1D0093C1031093C2032093C3033093C40337FD1CC0149A00913014109190
:207B60003114209132143091331480909B03082C000C9908AA08BB08080D191D2A1D3B1DD3
:207B800000933014109331142093321430933314209184003091850028173907C8F30091DD
:207BA000B5031091B6032091B7033091B80337FD15C08090A1039090A203A090A303B09034
:207BC000A403081919092A093B090093B5031093B6032093B7033093B80388980091B90345
:207BE0001091BA032091BB033091BC0337FD15C08090A1039090A203A090A303B090A403F9
:207C0000081919092A093B090093B9031093BA032093BB033093BC038E980091BD031091F0
:207C2000BE032091BF033091C00337FD19C08090A1039090A203A090A303B090A403081928
:207C400019092A093B090093BD031093BE032093BF033093C00320910B01287020930901C7
:207C60000091C1031091C2032091C3033091C40337FD15C08090A1039090A203A090A303F2
:207C8000B090A403081919092A093B090093C1031093C2032093C3033093C4031498415044
:207CA00041F0209184003091850028173907C8F381CE8091E0039091E103A091E203B0913F
